:1000000012C048C029C028C059C026C025C07DC024
:1000100023C08CC022C020C01FC01EC01DC01CC079
:100020001BC01AC019C011241FBECFEDCDBF10E0F8
:10003000A0E6B0E0E0E8F5E002C005900D92A6363B
:10004000B107D9F720E0A6E6B0E001C01D92A138C3
:10005000B207E1F74DD192C2D3CF1F920F920FB6E4
:100060000F9211248F939F93459B08C0959A81E02E
:1000700090E090937E0080937D0005C0959810924B
:100080007E0010927D009F918F910F900FBE0F9078
:100090001F9018951F920F920FB60F9211248F93F5
:1000A0009F9381E090E09093800080937F009F91E8
:1000B0008F910F900FBE0F901F9018951F920F9267
:1000C0000FB60F9211248F939F93AF93BF9380919C
:1000D000730090917400A0917500B0917600019624
:1000E000A11DB11D8093730090937400A0937500BF
:1000F000B09376001DBC1CBCBF91AF919F918F91B6
:100100000F900FBE0F901F9018951F920F920FB671
:100110000F9211248F938CB18A3211F483E28CB93F
:100120008F910F900FBE0F901F9018951F920F92F6
:100130000FB60F9211248F93EF93FF938091660077
:10014000853060F4E091660081E08E0F8093660058
:10015000F0E0E05AFF4F80818CB902C01092660037
:10016000FF91EF918F910F900FBE0F901F901895F8
:100170008CB95D9BFECF08955F9BFECF8CB1089537
:10018000EF92FF920F931F93CF93DF937C01C62FC3
:10019000842F022F4111ECDF10E0D0E0812F90E09E
:1001A0008C179D073CF4F701E80FF91F8081E0DF11
:1001B0001F5FF4CF002341F0802FDF91CF911F917B
:1001C0000F91FF90EF90D4CFDF91CF911F910F91BE
:1001D000FF90EF900895CF93DF93EC0189918823EE
:1001E00011F0C6DFFBCFDF91CF910895CF93DF935E
:1001F000CDB7DD27C550CDBF40E1BE016F5F7F4F5A
:1002000090E089D1CE010196E6DFCB5FCDBFDF91D3
:10021000CF91089598E08C9A80FF08C020E12A953C
:10022000F1F78C982AEA2A95F1F707C020EA2A9577
:10023000F1F78C982AE12A95F1F700C08695915044
:1002400051F708958C9A8FEB93E00197F1F700C076
:1002500000008C989AEB9A95F1F700C083E393E045
:100260000197F1F700C00000089594988C988FEBE7
:1002700093E00197F1F700C0000008950F931F93DA
:10028000CF93DF938C01DEDF8CECC4DF8EEBC2DF1B
:10029000F8019801275F3F4F98E080E08C9A40E199
:1002A0004A95F1F78C9858E15A95F1F740B352E925
:1002B0005A95F1F700C042954170C42F40E0D42F09
:1002C000AE015695542F4427579547958695842B14
:1002D000915021F781932E173F07F1F6DF91CF91CF
:1002E0001F910F910895AEDF8CEC94DF84E492CFE0
:1002F000CF93DF93CDB7DD27C950CDBF8CE089B94F
:1003000012B81BB888ED8AB986E083B9AEDF83E006
:1003100081B988E088B99298BA9885B7826085BF1C
:100320008BB780648BBF95988D9A88B3877E88BB86
:1003300087B3886187BB93988B9A83EC80BF85E0F5
:1003400083BF16BE8091790090917A0086BF1FBC52
:1003500088E090E09BBD8ABD1DBC1CBC80E489BFC9
:100360008DE08EBD789403E010E0EE24E394F12C50
:1003700080917F009091800081309105E1F420917F
:100380007B0030917C00232BB1F4C49AC3989093E6
:100390007C0080937B008091730090917400A09109
:1003A0007500B091760080936F0090937000A093D9
:1003B0007100B093720080917B0090917C00029755
:1003C000E1F480917F00909180000197B1F4C39A8D
:1003D000C49810937C0000937B00809173009091EF
:1003E0007400A0917500B091760080936F00909397
:1003F0007000A0937100B093720080917B00909187
:100400007C00019731F080917B0090917C000397F4
:1004100071F58091730090917400A0917500B09176
:10042000760040916F005091700060917100709162
:100430007200841B950BA60BB70B80319742A10568
:10044000B105A8F080917B0090917C00019719F094
:1004500080E090E002C082E090E090937C00809386
:100460007B00C498C3981092800010927F00809106
:10047000770090917800892BA9F480917300909176
:100480007400A0917500B0917600809367009093FE
:100490006800A0936900B0936A0025DFF0927800AD
:1004A000E09277008091770090917800019701F5B4
:1004B0008091730090917400A0917500B0917600C6
:1004C00040916700509168006091690070916A00E6
:1004D000841B950BA60BB70B883E9340A105B10575
:1004E00038F0CE010196CADE1092780010927700A3
:1004F0008A818093600089818093610080917B0074
:1005000090917C00809362008091790090917A00B4
:10051000809363002DCFBB274A3031F4992322F416
:10052000BDE2909581959F4F01C0BB27FB015527E8
:10053000AA27880F991FAA1FA41710F0A41B839540
:100540005051B9F7A05DAA3308F0A95DA1930097B7
:1005500079F7B111B1931192CB0100C0DC01FC011C
:10056000672F71917723E1F7329704C07C916D93E7
:1005700070836291AE17BF07C8F30895F894FFCF58
:0605800000000000230052
:00000001FF
