:1000000012C04FC029C028C060C026C025C084C00F
:1000100023C022C02BC020C01FC01EC01DC01CC0DA
:100020001BC01AC019C011241FBECFEDCDBF10E0F8
:10003000A0E6B0E0EAEDF7E002C005900D92AE3622
:10004000B107D9F720E0AEE6B0E001C01D92AD38AF
:10005000B207E1F757D1BFC3D3CFC49AC39808956D
:10006000C39AC4980895C498C39808951F920F9294
:100070000FB60F9211248F939F93459B07C081E089
:1000800090E0909386008093850004C010928600D3
:10009000109285009F918F910F900FBE0F901F902F
:1000A00018951F920F920FB60F9211248F939F9362
:1000B00081E090E090938800809387009F918F91DA
:1000C0000F900FBE0F901F9018951F920F920FB6B2
:1000D0000F9211248F939F93AF93BF9380917B00D6
:1000E00090917C00A0917D00B0917E000196A11DB1
:1000F000B11D80937B0090937C00A0937D00B09312
:100100007E001DBC1CBCBF91AF919F918F910F9041
:100110000FBE0F901F9018951F920F920FB60F925F
:1001200011248F939F938CB1833309F44BC070F4E7
:100130008D3209F463C0823389F18B3209F069C0D2
:1001400010926B0010926A0081E05DC0863309F462
:1001500051C048F4853309F05CC0109269001092D8
:10016000680081E048C0893309F450C0813609F045
:1001700050C081E090E090936B0080936A00909370
:1001800069008093680090936D0080936C001092DA
:10019000700010927200109271003BC010926D00BE
:1001A00010926C0082E080937100809183009091A6
:1001B00084000397E9F08091830090918400892B5B
:1001C000A1F416C010926D0010926C0081E0809333
:1001D00071008091830090918400019749F0809193
:1001E000830090918400029719F081E38CB911C0CB
:1001F00080E3FCCF82E0809372000BC010926B0012
:1002000010926A0082E08093700003C081E08093C6
:100210006F009F918F910F900FBE0F901F901895B8
:100220005D9BFECF8CB9089598E08C9A80FF08C042
:1002300020E12A95F1F78C982AEA2A95F1F707C070
:1002400020EA2A95F1F78C982AE12A95F1F700C067
:100250008695915051F708958C9A8FEB93E0019712
:10026000F1F700C000008C989AEB9A95F1F700C066
:1002700083E393E00197F1F700C00000089594989C
:100280008C988FEB93E00197F1F700C00000089580
:100290000F931F93CF93DF938C01DEDF8CECC4DFD1
:1002A0008EEBC2DFF8019801275F3F4F98E080E0B6
:1002B0008C9A40E14A95F1F78C9858E15A95F1F7FC
:1002C00040B352E95A95F1F700C042954170C42FEE
:1002D00040E0D42FAE015695542F442757954795AB
:1002E0008695842B915021F781932E173F07F1F6C5
:1002F000DF91CF911F910F910895AEDF8CEC94DFC9
:1003000084E492CFCF93DF93CDB7DD27C950CDBF23
:1003100083E389B912B81BB888E98AB986E083B942
:10032000AEDF83E081B988E088B99298BA9885B742
:10033000826085BF8BB780648BBF95988D9A88B398
:10034000877E88BB87B3886187BB93988B9A83EC41
:1003500080BF85E083BF16BE8091810090918200AE
:1003600086BF1FBC88E090E09BBD8ABD1DBC1CBC45
:1003700080E489BF8DE08EBD7894CC24C394D12CC9
:1003800043E0242E312C58ECA52EB12C08E710E0C8
:100390006CE3E62EF12C88EE482E83E0582E94E68E
:1003A000692E712C2AE0822E912C809187009091E9
:1003B0008800019761F48091830090918400892BDB
:1003C00031F480916C0090916D00019781F08091E3
:1003D000830090918400892B09F580916C009091A5
:1003E0006D00892BD9F4809171008130B9F435DE2C
:1003F000D0928400C092830080917B0090917C0019
:10040000A0917D00B0917E0080937700909378005A
:10041000A0937900B0937A001092710080918300CC
:1004200090918400029761F48091870090918800F8
:10043000019731F480916C0090916D00019781F0EB
:100440008091830090918400029709F580916C005F
:1004500090916D00892BD9F4809171008230B9F4AC
:10046000FFDD309284002092830080917B00909188
:100470007C00A0917D00B0917E00809377009093E6
:100480007800A0937900B0937A0010927100809167
:10049000830090918400019731F0809183009091C6
:1004A0008400039769F580917B0090917C00A09176
:1004B0007D00B0917E00409177005091780060916E
:1004C000790070917A00841B950BA60BB70B8031D5
:1004D0009742A105B105A0F080918300909184001E
:1004E000019719F080E090E002C082E090E09093E4
:1004F000840080938300B7DD1092880010928700FB
:100500008091680090916900019749F4809185007D
:1005100090918600019711F4959A01C09598809169
:10052000680090916900892BC1F480917200882342
:10053000A1F080917200813019F0823031F00BC04F
:1005400082B390E2892782BB06C0959902C080E3FE
:1005500001C081E38CB91092720080916A00909181
:100560006B00019739F5898182958F709A81892B6B
:1005700080938900893128F41092820010928100C2
:1005800019C097EE980F943028F4F0928200E09210
:10059000810010C094EE980F953028F410938200DB
:1005A0000093810007C08052853020F4B092820011
:1005B000A092810080916A0090916B00892B09F0D4
:1005C00050C080917000882309F44BC08091700066
:1005D000813019F0823009F142C080918100909100
:1005E0008200892B61F18091810090918200CC97EB
:1005F00091F180918100909182008837910529F4D2
:10060000B0928200A09281002AC0809181009091D6
:100610008200883C910519F506C080918100909177
:100620008200CC9729F4109282001092810017C0AA
:1006300080918100909182008837910529F4F09291
:100640008200E09281000BC0809181009091820035
:10065000883C910521F41093820000938100109250
:10066000700080917F0090918000892BA9F4809187
:100670007B0090917C00A0917D00B0917E008093E2
:10068000730090937400A0937500B093760035DEEC
:10069000D0928000C0927F0080917F009091800076
:1006A000019709F053C080917B0090917C00A0914C
:1006B0007D00B0917E004091730050917400609174
:1006C000750070917600841B950BA60BB70B883EC6
:1006D0009340A105B105D0F1CE010196D9DD10926C
:1006E000800010927F002981922F92959F708A81BD
:1006F000892B64E650D030E3380F30936000892FA7
:100700006AE049D0805D8093610090938C00905D99
:1007100090936200822F8F7090E061E772E02AD0A0
:10072000B20145D0605D60936400B30140D0605D6C
:1007300060936500B4013BD0605D60936600809378
:100740008A0090938B00805D809367008091810088
:100750009091820086BF80916F00882309F425CE96
:100760009A819F70898182958F70892B59DD1092B3
:100770006F0011CE0024552704C0080E591F880FA2
:10078000991F009729F076956795B8F37105B9F729
:10079000802D952F0895991B79E004C0991F961715
:1007A00008F0961B881F7A95C9F780950895AA1BB3
:1007B000BB1B51E107C0AA1FBB1FA617B70710F04C
:1007C000A61BB70B881F991F5A95A9F7809590957E
:0A07D000BC01CD010895F894FFCF9D
:0E07DA000000002E00000000010001000100E0
:00000001FF
