:1000000012C022C021C020C01FC01EC01DC01CC005
:100010001BC01AC019C018C017C016C015C014C024
:1000200013C012C011C011241FBECFEDCDBF10E010
:10003000A0E6B0E0EAEAF2E002C005900D92AA3B29
:10004000B107D9F7B5D02FC1DBCF8CB95D9BFECFFF
:1000500008955F9BFECF8CB10895EF92FF920F93AE
:100060001F93CF93DF937C01C62F842F022F411162
:10007000ECDF10E0D0E0812F90E08C179D073CF47E
:10008000F701E80FF91F8081E0DF1F5FF4CF002345
:1000900041F0802FDF91CF911F910F91FF90EF9052
:1000A000D4CFDF91CF911F910F91FF90EF900895E2
:1000B000CF93DF93EC018991882311F0C6DFFBCF4A
:1000C000DF91CF910895CF93DF93CDB7DD27C55052
:1000D000CDBF40E1BE016F5F7F4F90E0B1D0CE0158
:1000E0000196E6DFCB5FCDBFDF91CF910895929867
:1000F0008A9A8FEB93E00197F1F700C00000929885
:100100008A988299FECF829BFECF089598E09298BC
:100110008A9A20E12A95F1F7929880FF02C08A9886
:1001200001C08A9A2DEA2A95F1F7000092988A98E0
:1001300020E12A95F1F78695915049F792988A988F
:10014000089598E080E092988A9A20E12A95F1F744
:1001500092988A9825E32A95F1F70000829902C0C7
:1001600020E001C020E8822B25E82A95F1F7000065
:1001700092988A9820E12A95F1F78695915019F77F
:1001800092988A9808950F931F93CF93DF938C01D1
:10019000AEDF8EEBBBDFE801075F1F4FD2DF899335
:1001A000C017D107D9F7DF91CF911F910F91089513
:1001B000CF93DF93CDB7DD27C950CDBF8CE089B990
:1001C00012B81BB888E18AB986E083B9CE010196DE
:1001D000DADF80E690E06CDF898175DF8AE690E007
:1001E00067DF8A8170DF84E790E062DF8B816BDFFD
:1001F0008EE790E05DDF8C8166DF88E890E058DF75
:100200008D8161DF82E990E053DF8E815CDF8CE9D4
:1002100090E04EDF8F8157DF86EA90E049DF8885E6
:1002200052DF80EB90E044DF89854DDF2FEF83EDD7
:1002300090E3215080409040E1F700C00000C9CF1A
:10024000BB274A3031F4992322F4BDE29095819581
:100250009F4F01C0BB27FB015527AA27880F991F75
:10026000AA1FA41710F0A41B83955051B9F7A05DE5
:10027000AA3308F0A95DA193009779F7B111B19362
:100280001192CB0100C0DC01FC01672F7191772333
:10029000E1F7329704C07C916D9370836291AE1741
:0A02A000BF07C8F30895F894FFCFDC
:1002AA000A2052454730203A20000A205245473159
:1002BA00203A20000A2052454732203A20000A20DC
:1002CA0052454733203A20000A2052454734203A03
:1002DA0020000A2052454735203A20000A2052457C
:1002EA004736203A20000A2052454737203A200054
:0A02FA000A2052454738203A200040
:00000001FF
